{
  "_format": "hh-sol-artifact-1",
  "contractName": "L1Unwrapper",
  "sourceName": "contracts/bridge/L1Unwrapper.sol",
  "abi": [
    {
      "inputs": [
        {
          "internalType": "contract IOmnibridge",
          "name": "_bridge",
          "type": "address"
        },
        {
          "internalType": "contract IWETH",
          "name": "_weth",
          "type": "address"
        },
        {
          "internalType": "address",
          "name": "_owner",
          "type": "address"
        }
      ],
      "stateMutability": "nonpayable",
      "type": "constructor"
    },
    {
      "anonymous": false,
      "inputs": [
        {
          "indexed": true,
          "internalType": "address",
          "name": "owner",
          "type": "address"
        },
        {
          "indexed": false,
          "internalType": "bytes",
          "name": "key",
          "type": "bytes"
        }
      ],
      "name": "PublicKey",
      "type": "event"
    },
    {
      "inputs": [],
      "name": "WETH",
      "outputs": [
        {
          "internalType": "contract IWETH",
          "name": "",
          "type": "address"
        }
      ],
      "stateMutability": "view",
      "type": "function"
    },
    {
      "inputs": [],
      "name": "bridge",
      "outputs": [
        {
          "internalType": "contract IOmnibridge",
          "name": "",
          "type": "address"
        }
      ],
      "stateMutability": "view",
      "type": "function"
    },
    {
      "inputs": [
        {
          "internalType": "address",
          "name": "_token",
          "type": "address"
        },
        {
          "internalType": "address",
          "name": "_to",
          "type": "address"
        }
      ],
      "name": "claimTokens",
      "outputs": [],
      "stateMutability": "nonpayable",
      "type": "function"
    },
    {
      "inputs": [],
      "name": "l1FeeReceiver",
      "outputs": [
        {
          "internalType": "address payable",
          "name": "",
          "type": "address"
        }
      ],
      "stateMutability": "view",
      "type": "function"
    },
    {
      "inputs": [
        {
          "internalType": "address",
          "name": "_token",
          "type": "address"
        },
        {
          "internalType": "uint256",
          "name": "_value",
          "type": "uint256"
        },
        {
          "internalType": "bytes",
          "name": "_data",
          "type": "bytes"
        }
      ],
      "name": "onTokenBridged",
      "outputs": [],
      "stateMutability": "nonpayable",
      "type": "function"
    },
    {
      "inputs": [],
      "name": "owner",
      "outputs": [
        {
          "internalType": "address",
          "name": "",
          "type": "address"
        }
      ],
      "stateMutability": "view",
      "type": "function"
    },
    {
      "inputs": [
        {
          "components": [
            {
              "internalType": "address",
              "name": "owner",
              "type": "address"
            },
            {
              "internalType": "bytes",
              "name": "publicKey",
              "type": "bytes"
            }
          ],
          "internalType": "struct L1Unwrapper.Account",
          "name": "_account",
          "type": "tuple"
        }
      ],
      "name": "register",
      "outputs": [],
      "stateMutability": "nonpayable",
      "type": "function"
    },
    {
      "inputs": [
        {
          "internalType": "address payable",
          "name": "_receiver",
          "type": "address"
        }
      ],
      "name": "setL1FeeReceiver",
      "outputs": [],
      "stateMutability": "nonpayable",
      "type": "function"
    },
    {
      "inputs": [
        {
          "internalType": "address",
          "name": "_newOwner",
          "type": "address"
        }
      ],
      "name": "transferOwnership",
      "outputs": [],
      "stateMutability": "nonpayable",
      "type": "function"
    },
    {
      "inputs": [],
      "name": "wrapAndRelayTokens",
      "outputs": [],
      "stateMutability": "payable",
      "type": "function"
    },
    {
      "inputs": [
        {
          "internalType": "address",
          "name": "_receiver",
          "type": "address"
        },
        {
          "internalType": "bytes",
          "name": "_data",
          "type": "bytes"
        }
      ],
      "name": "wrapAndRelayTokens",
      "outputs": [],
      "stateMutability": "payable",
      "type": "function"
    },
    {
      "inputs": [
        {
          "internalType": "address",
          "name": "_receiver",
          "type": "address"
        },
        {
          "internalType": "bytes",
          "name": "_data",
          "type": "bytes"
        },
        {
          "components": [
            {
              "internalType": "address",
              "name": "owner",
              "type": "address"
            },
            {
              "internalType": "bytes",
              "name": "publicKey",
              "type": "bytes"
            }
          ],
          "internalType": "struct L1Unwrapper.Account",
          "name": "_account",
          "type": "tuple"
        }
      ],
      "name": "wrapAndRelayTokens",
      "outputs": [],
      "stateMutability": "payable",
      "type": "function"
    },
    {
      "inputs": [
        {
          "internalType": "address",
          "name": "_receiver",
          "type": "address"
        }
      ],
      "name": "wrapAndRelayTokens",
      "outputs": [],
      "stateMutability": "payable",
      "type": "function"
    },
    {
      "stateMutability": "payable",
      "type": "receive"
    }
  ],
  "bytecode": "0x60c06040523480156200001157600080fd5b506040516200150f3803806200150f8339810160408190526200003491620000e3565b600080546001600160a01b038084166001600160a01b03199092169190911782556001600160601b0319606086811b821660805285901b1660a0526040805163095ea7b360e01b81528287166004820152600019602482015290518693869386939085169263095ea7b39260448084019391929182900301818387803b158015620000be57600080fd5b505af1158015620000d3573d6000803e3d6000fd5b505050505050505050506200014f565b600080600060608486031215620000f8578283fd5b8351620001058162000136565b6020850151909350620001188162000136565b60408501519092506200012b8162000136565b809150509250925092565b6001600160a01b03811681146200014c57600080fd5b50565b60805160601c60a05160601c611356620001b96000398060d6528061026e5280610311528061047d528061053352806105b7528061061952806106e8528061081c52806108bf5250806102e25280610503528061067352806107bf528061089052506113566000f3fe6080604052600436106100c65760003560e01c80639254c66e1161007f578063db7af85411610059578063db7af854146101ea578063e78cea921461020a578063f2fde38b1461021f578063f52cbf0e1461023f57610102565b80639254c66e146101a2578063ad5c4648146101b5578063b2bc6e0f146101ca57610102565b806301a754ff1461010757806332a8fe621461010f5780633ace47651461013a57806369ffa08a1461014d5780637879ad731461016d5780638da5cb5b1461018d57610102565b3661010257336001600160a01b037f0000000000000000000000000000000000000000000000000000000000000000161461010057600080fd5b005b600080fd5b610100610252565b34801561011b57600080fd5b5061012461025d565b6040516101319190611156565b60405180910390f35b610100610148366004610fc2565b61026c565b34801561015957600080fd5b50610100610168366004610f8a565b61040e565b34801561017957600080fd5b50610100610188366004610f41565b610433565b34801561019957600080fd5b5061012461046c565b6101006101b0366004611010565b61047b565b3480156101c157600080fd5b506101246105b5565b3480156101d657600080fd5b506101006101e53660046110d0565b6105d9565b3480156101f657600080fd5b50610100610205366004611083565b610617565b34801561021657600080fd5b506101246107bd565b34801561022b57600080fd5b5061010061023a366004610f41565b6107e1565b61010061024d366004610f41565b61081a565b61025b3361081a565b565b6001546001600160a01b031681565b7f00000000000000000000000000000000000000000000000000000000000000006001600160a01b031663d0e30db0346040518263ffffffff1660e01b81526004016000604051808303818588803b1580156102c757600080fd5b505af11580156102db573d6000803e3d6000fd5b50505050507f00000000000000000000000000000000000000000000000000000000000000006001600160a01b031663d74054817f00000000000000000000000000000000000000000000000000000000000000008434856040518563ffffffff1660e01b815260040180856001600160a01b03168152602001846001600160a01b0316815260200183815260200180602001828103825283818151815260200191508051906020019080838360005b838110156103a357818101518382015260200161038b565b50505050905090810190601f1680156103d05780820380516001836020036101000a031916815260200191505b5095505050505050600060405180830381600087803b1580156103f257600080fd5b505af1158015610406573d6000803e3d6000fd5b505050505050565b6000546001600160a01b0316331461042557600080fd5b61042f828261094a565b5050565b6000546001600160a01b0316331461044a57600080fd5b600180546001600160a01b0319166001600160a01b0392909216919091179055565b6000546001600160a01b031681565b7f00000000000000000000000000000000000000000000000000000000000000006001600160a01b031663d0e30db0346040518263ffffffff1660e01b81526004016000604051808303818588803b1580156104d657600080fd5b505af11580156104ea573d6000803e3d6000fd5b505060405163d740548160e01b81526001600160a01b037f000000000000000000000000000000000000000000000000000000000000000016935063d7405481925061056191507f00000000000000000000000000000000000000000000000000000000000000009087903490889060040161116a565b600060405180830381600087803b15801561057b57600080fd5b505af115801561058f573d6000803e3d6000fd5b505082516001600160a01b031633141591506105b09050576105b081610984565b505050565b7f000000000000000000000000000000000000000000000000000000000000000081565b80516001600160a01b0316331461060b5760405162461bcd60e51b8152600401610602906111ba565b60405180910390fd5b61061481610984565b50565b7f00000000000000000000000000000000000000000000000000000000000000006001600160a01b0316836001600160a01b0316146106685760405162461bcd60e51b8152600401610602906111f1565b336001600160a01b037f000000000000000000000000000000000000000000000000000000000000000016146106b05760405162461bcd60e51b81526004016106029061121a565b80516040146106d15760405162461bcd60e51b815260040161060290611251565b604051632e1a7d4d60e01b81526001600160a01b037f00000000000000000000000000000000000000000000000000000000000000001690632e1a7d4d9061071d908590600401611280565b600060405180830381600087803b15801561073757600080fd5b505af115801561074b573d6000803e3d6000fd5b50505050600080828060200190518101906107669190610f5d565b909250905061077e8261077986846109d0565b610a2d565b80156107b6576001546000906001600160a01b031661079d57326107aa565b6001546001600160a01b03165b90506104068183610a2d565b5050505050565b7f000000000000000000000000000000000000000000000000000000000000000081565b6000546001600160a01b031633146107f857600080fd5b600080546001600160a01b0319166001600160a01b0392909216919091179055565b7f00000000000000000000000000000000000000000000000000000000000000006001600160a01b031663d0e30db0346040518263ffffffff1660e01b81526004016000604051808303818588803b15801561087557600080fd5b505af1158015610889573d6000803e3d6000fd5b50505050507f00000000000000000000000000000000000000000000000000000000000000006001600160a01b031663ad58bdd17f000000000000000000000000000000000000000000000000000000000000000083346040518463ffffffff1660e01b815260040180846001600160a01b03168152602001836001600160a01b031681526020018281526020019350505050600060405180830381600087803b15801561093657600080fd5b505af11580156107b6573d6000803e3d6000fd5b806001600160a01b03811661095e57600080fd5b6001600160a01b03831661097a5761097582610a98565b6105b0565b6105b08383610aa3565b80600001516001600160a01b03167f2c1ca5c14df2aba59d26842c5ff53f6817052ef34f6f7537f8b4c9e3805a5e5082602001516040516109c591906111a7565b60405180910390a250565b600082821115610a27576040805162461bcd60e51b815260206004820152601e60248201527f536166654d6174683a207375627472616374696f6e206f766572666c6f770000604482015290519081900360640190fd5b50900390565b6040516001600160a01b0383169082156108fc029083906000818181858888f1935050505061042f578082604051610a6490610e48565b6001600160a01b039091168152604051908190036020019082f0905080158015610a92573d6000803e3d6000fd5b50505050565b4761042f8282610a2d565b604080516370a0823160e01b8152306004820152905183916000916001600160a01b038416916370a08231916024808301926020929190829003018186803b158015610aee57600080fd5b505afa158015610b02573d6000803e3d6000fd5b505050506040513d6020811015610b1857600080fd5b50519050610a926001600160a01b0383168483604080516001600160a01b038416602482015260448082018490528251808303909101815260649091019091526020810180516001600160e01b031663a9059cbb60e01b1790526105b09084906060610bcd826040518060400160405280602081526020017f5361666545524332303a206c6f772d6c6576656c2063616c6c206661696c6564815250856001600160a01b0316610c299092919063ffffffff16565b8051909150156105b057808060200190516020811015610bec57600080fd5b50516105b05760405162461bcd60e51b815260040180806020018281038252602a8152602001806112f7602a913960400191505060405180910390fd5b6060610c388484600085610c42565b90505b9392505050565b606082471015610c835760405162461bcd60e51b81526004018080602001828103825260268152602001806112d16026913960400191505060405180910390fd5b610c8c85610d9e565b610cdd576040805162461bcd60e51b815260206004820152601d60248201527f416464726573733a2063616c6c20746f206e6f6e2d636f6e7472616374000000604482015290519081900360640190fd5b60006060866001600160a01b031685876040518082805190602001908083835b60208310610d1c5780518252601f199092019160209182019101610cfd565b6001836020036101000a03801982511681845116808217855250505050505090500191505060006040518083038185875af1925050503d8060008114610d7e576040519150601f19603f3d011682016040523d82523d6000602084013e610d83565b606091505b5091509150610d93828286610da4565b979650505050505050565b3b151590565b60608315610db3575081610c3b565b825115610dc35782518084602001fd5b8160405162461bcd60e51b81526004018080602001828103825283818151815260200191508051906020019080838360005b83811015610e0d578181015183820152602001610df5565b50505050905090810190601f168015610e3a5780820380516001836020036101000a031916815260200191505b509250505060405180910390fd5b60328061129f83390190565b600082601f830112610e64578081fd5b813567ffffffffffffffff80821115610e7957fe5b604051601f8301601f191681016020018281118282101715610e9757fe5b604052828152925082848301602001861015610eb257600080fd5b8260208601602083013760006020848301015250505092915050565b600060408284031215610edf578081fd5b6040516040810167ffffffffffffffff8282108183111715610efd57fe5b8160405282935084359150610f1182611289565b90825260208401359080821115610f2757600080fd5b50610f3485828601610e54565b6020830152505092915050565b600060208284031215610f52578081fd5b8135610c3b81611289565b60008060408385031215610f6f578081fd5b8251610f7a81611289565b6020939093015192949293505050565b60008060408385031215610f9c578182fd5b8235610fa781611289565b91506020830135610fb781611289565b809150509250929050565b60008060408385031215610fd4578182fd5b8235610fdf81611289565b9150602083013567ffffffffffffffff811115610ffa578182fd5b61100685828601610e54565b9150509250929050565b600080600060608486031215611024578081fd5b833561102f81611289565b9250602084013567ffffffffffffffff8082111561104b578283fd5b61105787838801610e54565b9350604086013591508082111561106c578283fd5b5061107986828701610ece565b9150509250925092565b600080600060608486031215611097578283fd5b83356110a281611289565b925060208401359150604084013567ffffffffffffffff8111156110c4578182fd5b61107986828701610e54565b6000602082840312156110e1578081fd5b813567ffffffffffffffff8111156110f7578182fd5b61110384828501610ece565b949350505050565b60008151808452815b8181101561113057602081850181015186830182015201611114565b818111156111415782602083870101525b50601f01601f19169290920160200192915050565b6001600160a01b0391909116815260200190565b6001600160a01b038581168252841660208201526040810183905260806060820181905260009061119d9083018461110b565b9695505050505050565b600060208252610c3b602083018461110b565b6020808252601c908201527f6f6e6c79206f776e65722063616e206265207265676973746572656400000000604082015260600190565b6020808252600f908201526e37b7363c902ba2aa24103a37b5b2b760891b604082015260600190565b60208082526018908201527f6f6e6c792066726f6d2062726964676520616464726573730000000000000000604082015260600190565b6020808252601590820152740d2dcc6dee4e4cac6e840c8c2e8c240d8cadccee8d605b1b604082015260600190565b90815260200190565b6001600160a01b038116811461061457600080fdfe60806040526040516032380380603283398181016040526020811015602357600080fd5b50516001600160a01b038116fffe416464726573733a20696e73756666696369656e742062616c616e636520666f722063616c6c5361666545524332303a204552433230206f7065726174696f6e20646964206e6f742073756363656564a2646970667358221220bfaef4457af485010a4571dc1fed6901331717b67d1442e86353aaa08b2ff68264736f6c63430007050033",
  "linkReferences": {},
  "deployedLinkReferences": {}
}