{
  "_format": "hh-sol-artifact-1",
  "contractName": "TornadoPool",
  "sourceName": "contracts/TornadoPool.sol",
  "abi": [
    {
      "inputs": [
        {
          "internalType": "contract IVerifier",
          "name": "_verifier2",
          "type": "address"
        },
        {
          "internalType": "contract IVerifier",
          "name": "_verifier16",
          "type": "address"
        },
        {
          "internalType": "uint32",
          "name": "_levels",
          "type": "uint32"
        },
        {
          "internalType": "address",
          "name": "_hasher",
          "type": "address"
        },
        {
          "internalType": "contract IERC6777",
          "name": "_token",
          "type": "address"
        },
        {
          "internalType": "address",
          "name": "_omniBridge",
          "type": "address"
        },
        {
          "internalType": "address",
          "name": "_l1Unwrapper",
          "type": "address"
        },
        {
          "internalType": "address",
          "name": "_governance",
          "type": "address"
        },
        {
          "internalType": "uint256",
          "name": "_l1ChainId",
          "type": "uint256"
        },
        {
          "internalType": "address",
          "name": "_multisig",
          "type": "address"
        }
      ],
      "stateMutability": "nonpayable",
      "type": "constructor"
    },
    {
      "anonymous": false,
      "inputs": [
        {
          "indexed": false,
          "internalType": "bytes32",
          "name": "commitment",
          "type": "bytes32"
        },
        {
          "indexed": false,
          "internalType": "uint256",
          "name": "index",
          "type": "uint256"
        },
        {
          "indexed": false,
          "internalType": "bytes",
          "name": "encryptedOutput",
          "type": "bytes"
        }
      ],
      "name": "NewCommitment",
      "type": "event"
    },
    {
      "anonymous": false,
      "inputs": [
        {
          "indexed": false,
          "internalType": "bytes32",
          "name": "nullifier",
          "type": "bytes32"
        }
      ],
      "name": "NewNullifier",
      "type": "event"
    },
    {
      "anonymous": false,
      "inputs": [
        {
          "indexed": true,
          "internalType": "address",
          "name": "owner",
          "type": "address"
        },
        {
          "indexed": false,
          "internalType": "bytes",
          "name": "key",
          "type": "bytes"
        }
      ],
      "name": "PublicKey",
      "type": "event"
    },
    {
      "inputs": [],
      "name": "FIELD_SIZE",
      "outputs": [
        {
          "internalType": "uint256",
          "name": "",
          "type": "uint256"
        }
      ],
      "stateMutability": "view",
      "type": "function"
    },
    {
      "inputs": [],
      "name": "MAX_EXT_AMOUNT",
      "outputs": [
        {
          "internalType": "int256",
          "name": "",
          "type": "int256"
        }
      ],
      "stateMutability": "view",
      "type": "function"
    },
    {
      "inputs": [],
      "name": "MAX_FEE",
      "outputs": [
        {
          "internalType": "uint256",
          "name": "",
          "type": "uint256"
        }
      ],
      "stateMutability": "view",
      "type": "function"
    },
    {
      "inputs": [],
      "name": "MIN_EXT_AMOUNT_LIMIT",
      "outputs": [
        {
          "internalType": "uint256",
          "name": "",
          "type": "uint256"
        }
      ],
      "stateMutability": "view",
      "type": "function"
    },
    {
      "inputs": [],
      "name": "ROOT_HISTORY_SIZE",
      "outputs": [
        {
          "internalType": "uint32",
          "name": "",
          "type": "uint32"
        }
      ],
      "stateMutability": "view",
      "type": "function"
    },
    {
      "inputs": [],
      "name": "ZERO_VALUE",
      "outputs": [
        {
          "internalType": "uint256",
          "name": "",
          "type": "uint256"
        }
      ],
      "stateMutability": "view",
      "type": "function"
    },
    {
      "inputs": [],
      "name": "__gap",
      "outputs": [
        {
          "internalType": "uint256",
          "name": "",
          "type": "uint256"
        }
      ],
      "stateMutability": "view",
      "type": "function"
    },
    {
      "inputs": [],
      "name": "ambBridge",
      "outputs": [
        {
          "internalType": "contract IAMB",
          "name": "",
          "type": "address"
        }
      ],
      "stateMutability": "view",
      "type": "function"
    },
    {
      "inputs": [
        {
          "internalType": "int256",
          "name": "_extAmount",
          "type": "int256"
        },
        {
          "internalType": "uint256",
          "name": "_fee",
          "type": "uint256"
        }
      ],
      "name": "calculatePublicAmount",
      "outputs": [
        {
          "internalType": "uint256",
          "name": "",
          "type": "uint256"
        }
      ],
      "stateMutability": "pure",
      "type": "function"
    },
    {
      "inputs": [
        {
          "internalType": "uint256",
          "name": "_maximumDepositAmount",
          "type": "uint256"
        }
      ],
      "name": "configureLimits",
      "outputs": [],
      "stateMutability": "nonpayable",
      "type": "function"
    },
    {
      "inputs": [],
      "name": "currentRootIndex",
      "outputs": [
        {
          "internalType": "uint32",
          "name": "",
          "type": "uint32"
        }
      ],
      "stateMutability": "view",
      "type": "function"
    },
    {
      "inputs": [
        {
          "internalType": "uint256",
          "name": "",
          "type": "uint256"
        }
      ],
      "name": "filledSubtrees",
      "outputs": [
        {
          "internalType": "bytes32",
          "name": "",
          "type": "bytes32"
        }
      ],
      "stateMutability": "view",
      "type": "function"
    },
    {
      "inputs": [],
      "name": "getLastRoot",
      "outputs": [
        {
          "internalType": "bytes32",
          "name": "",
          "type": "bytes32"
        }
      ],
      "stateMutability": "view",
      "type": "function"
    },
    {
      "inputs": [
        {
          "internalType": "bytes32",
          "name": "_left",
          "type": "bytes32"
        },
        {
          "internalType": "bytes32",
          "name": "_right",
          "type": "bytes32"
        }
      ],
      "name": "hashLeftRight",
      "outputs": [
        {
          "internalType": "bytes32",
          "name": "",
          "type": "bytes32"
        }
      ],
      "stateMutability": "view",
      "type": "function"
    },
    {
      "inputs": [],
      "name": "hasher",
      "outputs": [
        {
          "internalType": "contract IHasher",
          "name": "",
          "type": "address"
        }
      ],
      "stateMutability": "view",
      "type": "function"
    },
    {
      "inputs": [
        {
          "internalType": "uint256",
          "name": "_maximumDepositAmount",
          "type": "uint256"
        }
      ],
      "name": "initialize",
      "outputs": [],
      "stateMutability": "nonpayable",
      "type": "function"
    },
    {
      "inputs": [],
      "name": "isCalledByOwner",
      "outputs": [
        {
          "internalType": "bool",
          "name": "",
          "type": "bool"
        }
      ],
      "stateMutability": "nonpayable",
      "type": "function"
    },
    {
      "inputs": [
        {
          "internalType": "bytes32",
          "name": "_root",
          "type": "bytes32"
        }
      ],
      "name": "isKnownRoot",
      "outputs": [
        {
          "internalType": "bool",
          "name": "",
          "type": "bool"
        }
      ],
      "stateMutability": "view",
      "type": "function"
    },
    {
      "inputs": [
        {
          "internalType": "bytes32",
          "name": "_nullifierHash",
          "type": "bytes32"
        }
      ],
      "name": "isSpent",
      "outputs": [
        {
          "internalType": "bool",
          "name": "",
          "type": "bool"
        }
      ],
      "stateMutability": "view",
      "type": "function"
    },
    {
      "inputs": [],
      "name": "l1Unwrapper",
      "outputs": [
        {
          "internalType": "address",
          "name": "",
          "type": "address"
        }
      ],
      "stateMutability": "view",
      "type": "function"
    },
    {
      "inputs": [],
      "name": "lastBalance",
      "outputs": [
        {
          "internalType": "uint256",
          "name": "",
          "type": "uint256"
        }
      ],
      "stateMutability": "view",
      "type": "function"
    },
    {
      "inputs": [],
      "name": "levels",
      "outputs": [
        {
          "internalType": "uint32",
          "name": "",
          "type": "uint32"
        }
      ],
      "stateMutability": "view",
      "type": "function"
    },
    {
      "inputs": [],
      "name": "maximumDepositAmount",
      "outputs": [
        {
          "internalType": "uint256",
          "name": "",
          "type": "uint256"
        }
      ],
      "stateMutability": "view",
      "type": "function"
    },
    {
      "inputs": [],
      "name": "multisig",
      "outputs": [
        {
          "internalType": "address",
          "name": "",
          "type": "address"
        }
      ],
      "stateMutability": "view",
      "type": "function"
    },
    {
      "inputs": [],
      "name": "nextIndex",
      "outputs": [
        {
          "internalType": "uint32",
          "name": "",
          "type": "uint32"
        }
      ],
      "stateMutability": "view",
      "type": "function"
    },
    {
      "inputs": [
        {
          "internalType": "bytes32",
          "name": "",
          "type": "bytes32"
        }
      ],
      "name": "nullifierHashes",
      "outputs": [
        {
          "internalType": "bool",
          "name": "",
          "type": "bool"
        }
      ],
      "stateMutability": "view",
      "type": "function"
    },
    {
      "inputs": [],
      "name": "omniBridge",
      "outputs": [
        {
          "internalType": "address",
          "name": "",
          "type": "address"
        }
      ],
      "stateMutability": "view",
      "type": "function"
    },
    {
      "inputs": [
        {
          "internalType": "contract IERC6777",
          "name": "_token",
          "type": "address"
        },
        {
          "internalType": "uint256",
          "name": "_amount",
          "type": "uint256"
        },
        {
          "internalType": "bytes",
          "name": "_data",
          "type": "bytes"
        }
      ],
      "name": "onTokenBridged",
      "outputs": [],
      "stateMutability": "nonpayable",
      "type": "function"
    },
    {
      "inputs": [
        {
          "components": [
            {
              "internalType": "bytes",
              "name": "proof",
              "type": "bytes"
            },
            {
              "internalType": "bytes32",
              "name": "root",
              "type": "bytes32"
            },
            {
              "internalType": "bytes32[]",
              "name": "inputNullifiers",
              "type": "bytes32[]"
            },
            {
              "internalType": "bytes32[2]",
              "name": "outputCommitments",
              "type": "bytes32[2]"
            },
            {
              "internalType": "uint256",
              "name": "publicAmount",
              "type": "uint256"
            },
            {
              "internalType": "bytes32",
              "name": "extDataHash",
              "type": "bytes32"
            }
          ],
          "internalType": "struct TornadoPool.Proof",
          "name": "_args",
          "type": "tuple"
        },
        {
          "components": [
            {
              "internalType": "address",
              "name": "recipient",
              "type": "address"
            },
            {
              "internalType": "int256",
              "name": "extAmount",
              "type": "int256"
            },
            {
              "internalType": "address",
              "name": "relayer",
              "type": "address"
            },
            {
              "internalType": "uint256",
              "name": "fee",
              "type": "uint256"
            },
            {
              "internalType": "bytes",
              "name": "encryptedOutput1",
              "type": "bytes"
            },
            {
              "internalType": "bytes",
              "name": "encryptedOutput2",
              "type": "bytes"
            },
            {
              "internalType": "bool",
              "name": "isL1Withdrawal",
              "type": "bool"
            },
            {
              "internalType": "uint256",
              "name": "l1Fee",
              "type": "uint256"
            }
          ],
          "internalType": "struct TornadoPool.ExtData",
          "name": "_extData",
          "type": "tuple"
        }
      ],
      "name": "onTransact",
      "outputs": [],
      "stateMutability": "nonpayable",
      "type": "function"
    },
    {
      "inputs": [],
      "name": "owner",
      "outputs": [
        {
          "internalType": "address",
          "name": "",
          "type": "address"
        }
      ],
      "stateMutability": "view",
      "type": "function"
    },
    {
      "inputs": [],
      "name": "ownerChainId",
      "outputs": [
        {
          "internalType": "bytes32",
          "name": "",
          "type": "bytes32"
        }
      ],
      "stateMutability": "view",
      "type": "function"
    },
    {
      "inputs": [
        {
          "components": [
            {
              "internalType": "address",
              "name": "owner",
              "type": "address"
            },
            {
              "internalType": "bytes",
              "name": "publicKey",
              "type": "bytes"
            }
          ],
          "internalType": "struct TornadoPool.Account",
          "name": "_account",
          "type": "tuple"
        }
      ],
      "name": "register",
      "outputs": [],
      "stateMutability": "nonpayable",
      "type": "function"
    },
    {
      "inputs": [
        {
          "components": [
            {
              "internalType": "address",
              "name": "owner",
              "type": "address"
            },
            {
              "internalType": "bytes",
              "name": "publicKey",
              "type": "bytes"
            }
          ],
          "internalType": "struct TornadoPool.Account",
          "name": "_account",
          "type": "tuple"
        },
        {
          "components": [
            {
              "internalType": "bytes",
              "name": "proof",
              "type": "bytes"
            },
            {
              "internalType": "bytes32",
              "name": "root",
              "type": "bytes32"
            },
            {
              "internalType": "bytes32[]",
              "name": "inputNullifiers",
              "type": "bytes32[]"
            },
            {
              "internalType": "bytes32[2]",
              "name": "outputCommitments",
              "type": "bytes32[2]"
            },
            {
              "internalType": "uint256",
              "name": "publicAmount",
              "type": "uint256"
            },
            {
              "internalType": "bytes32",
              "name": "extDataHash",
              "type": "bytes32"
            }
          ],
          "internalType": "struct TornadoPool.Proof",
          "name": "_proofArgs",
          "type": "tuple"
        },
        {
          "components": [
            {
              "internalType": "address",
              "name": "recipient",
              "type": "address"
            },
            {
              "internalType": "int256",
              "name": "extAmount",
              "type": "int256"
            },
            {
              "internalType": "address",
              "name": "relayer",
              "type": "address"
            },
            {
              "internalType": "uint256",
              "name": "fee",
              "type": "uint256"
            },
            {
              "internalType": "bytes",
              "name": "encryptedOutput1",
              "type": "bytes"
            },
            {
              "internalType": "bytes",
              "name": "encryptedOutput2",
              "type": "bytes"
            },
            {
              "internalType": "bool",
              "name": "isL1Withdrawal",
              "type": "bool"
            },
            {
              "internalType": "uint256",
              "name": "l1Fee",
              "type": "uint256"
            }
          ],
          "internalType": "struct TornadoPool.ExtData",
          "name": "_extData",
          "type": "tuple"
        }
      ],
      "name": "registerAndTransact",
      "outputs": [],
      "stateMutability": "nonpayable",
      "type": "function"
    },
    {
      "inputs": [
        {
          "internalType": "contract IERC6777",
          "name": "_token",
          "type": "address"
        },
        {
          "internalType": "address payable",
          "name": "_to",
          "type": "address"
        },
        {
          "internalType": "uint256",
          "name": "_balance",
          "type": "uint256"
        }
      ],
      "name": "rescueTokens",
      "outputs": [],
      "stateMutability": "nonpayable",
      "type": "function"
    },
    {
      "inputs": [
        {
          "internalType": "uint256",
          "name": "",
          "type": "uint256"
        }
      ],
      "name": "roots",
      "outputs": [
        {
          "internalType": "bytes32",
          "name": "",
          "type": "bytes32"
        }
      ],
      "stateMutability": "view",
      "type": "function"
    },
    {
      "inputs": [],
      "name": "token",
      "outputs": [
        {
          "internalType": "contract IERC6777",
          "name": "",
          "type": "address"
        }
      ],
      "stateMutability": "view",
      "type": "function"
    },
    {
      "inputs": [
        {
          "components": [
            {
              "internalType": "bytes",
              "name": "proof",
              "type": "bytes"
            },
            {
              "internalType": "bytes32",
              "name": "root",
              "type": "bytes32"
            },
            {
              "internalType": "bytes32[]",
              "name": "inputNullifiers",
              "type": "bytes32[]"
            },
            {
              "internalType": "bytes32[2]",
              "name": "outputCommitments",
              "type": "bytes32[2]"
            },
            {
              "internalType": "uint256",
              "name": "publicAmount",
              "type": "uint256"
            },
            {
              "internalType": "bytes32",
              "name": "extDataHash",
              "type": "bytes32"
            }
          ],
          "internalType": "struct TornadoPool.Proof",
          "name": "_args",
          "type": "tuple"
        },
        {
          "components": [
            {
              "internalType": "address",
              "name": "recipient",
              "type": "address"
            },
            {
              "internalType": "int256",
              "name": "extAmount",
              "type": "int256"
            },
            {
              "internalType": "address",
              "name": "relayer",
              "type": "address"
            },
            {
              "internalType": "uint256",
              "name": "fee",
              "type": "uint256"
            },
            {
              "internalType": "bytes",
              "name": "encryptedOutput1",
              "type": "bytes"
            },
            {
              "internalType": "bytes",
              "name": "encryptedOutput2",
              "type": "bytes"
            },
            {
              "internalType": "bool",
              "name": "isL1Withdrawal",
              "type": "bool"
            },
            {
              "internalType": "uint256",
              "name": "l1Fee",
              "type": "uint256"
            }
          ],
          "internalType": "struct TornadoPool.ExtData",
          "name": "_extData",
          "type": "tuple"
        }
      ],
      "name": "transact",
      "outputs": [],
      "stateMutability": "nonpayable",
      "type": "function"
    },
    {
      "inputs": [],
      "name": "verifier16",
      "outputs": [
        {
          "internalType": "contract IVerifier",
          "name": "",
          "type": "address"
        }
      ],
      "stateMutability": "view",
      "type": "function"
    },
    {
      "inputs": [],
      "name": "verifier2",
      "outputs": [
        {
          "internalType": "contract IVerifier",
          "name": "",
          "type": "address"
        }
      ],
      "stateMutability": "view",
      "type": "function"
    },
    {
      "inputs": [
        {
          "components": [
            {
              "internalType": "bytes",
              "name": "proof",
              "type": "bytes"
            },
            {
              "internalType": "bytes32",
              "name": "root",
              "type": "bytes32"
            },
            {
              "internalType": "bytes32[]",
              "name": "inputNullifiers",
              "type": "bytes32[]"
            },
            {
              "internalType": "bytes32[2]",
              "name": "outputCommitments",
              "type": "bytes32[2]"
            },
            {
              "internalType": "uint256",
              "name": "publicAmount",
              "type": "uint256"
            },
            {
              "internalType": "bytes32",
              "name": "extDataHash",
              "type": "bytes32"
            }
          ],
          "internalType": "struct TornadoPool.Proof",
          "name": "_args",
          "type": "tuple"
        }
      ],
      "name": "verifyProof",
      "outputs": [
        {
          "internalType": "bool",
          "name": "",
          "type": "bool"
        }
      ],
      "stateMutability": "view",
      "type": "function"
    },
    {
      "inputs": [
        {
          "internalType": "uint256",
          "name": "i",
          "type": "uint256"
        }
      ],
      "name": "zeros",
      "outputs": [
        {
          "internalType": "bytes32",
          "name": "",
          "type": "bytes32"
        }
      ],
      "stateMutability": "pure",
      "type": "function"
    }
  ],
  "bytecode": "0x6101e0604052600380546001600160401b03191690553480156200002257600080fd5b5060405162003adc38038062003adc833981016040819052620000459162000219565b846001600160a01b031663cd5965836040518163ffffffff1660e01b815260040160206040518083038186803b1580156200007f57600080fd5b505afa15801562000094573d6000803e3d6000fd5b505050506040513d601f19601f82011682018060405250810190620000ba9190620001f3565b82848a8a60008263ffffffff1611620001055760405162461bcd60e51b815260040180806020018281038252602381526020018062003ab96023913960400191505060405180910390fd5b60208263ffffffff161062000161576040805162461bcd60e51b815260206004820152601e60248201527f5f6c6576656c732073686f756c64206265206c657373207468616e2033320000604482015290519081900360640190fd5b6001600160e01b031960e092831b1660a0526001600160601b0319606091821b8116608052600160045594811b851660c05291821b841661010052919091529a8b1b811661012052988a1b89166101405294891b881661016052505090861b851661018052851b84166101a05290931b9091166101c052506200030f9050565b8051620001ee81620002f6565b919050565b60006020828403121562000205578081fd5b81516200021281620002f6565b9392505050565b6000806000806000806000806000806101408b8d03121562000239578586fd5b8a516200024681620002f6565b60208c0151909a506200025981620002f6565b60408c015190995063ffffffff8116811462000273578687fd5b60608c01519098506200028681620002f6565b60808c01519097506200029981620002f6565b60a08c0151909650620002ac81620002f6565b9450620002bc60c08c01620001e1565b9350620002cc60e08c01620001e1565b92506101008b01519150620002e56101208c01620001e1565b90509295989b9194979a5092959850565b6001600160a01b03811681146200030c57600080fd5b50565b60805160601c60a05160e01c60c05160601c60e0516101005160601c6101205160601c6101405160601c6101605160601c6101805160601c6101a05160601c6101c05160601c61368462000435600039806108de5280611001528061106f52806115e6525080610e5052806120e8525080610f84528061132e52806120bf525080610ed152806110d452806112d4528061139a528061147f52806115b95280611d4f528061209052806121e3528061227d528061233c52508061070f5280610a745250806109125280610d815250806106445280610e745250806105955280611e3a525080610494528061056b52806105b6528061066e525080610d5d528061256d52806125d6528061264652806126c952508061081b5280611d1952506136846000f3fe608060405234801561001057600080fd5b50600436106102535760003560e01c806390eeb02b11610146578063cea9d26f116100c3578063ed33639f11610087578063ed33639f1461044c578063f178e47c14610454578063fc0c546a14610467578063fc7e9c6f1461046f578063fe4b84df14610477578063ff4d18151461048a57610253565b8063cea9d26f146103f8578063db7af8541461040b578063e5285dcc1461041e578063e829558814610431578063ec7329591461044457610253565b8063bc063e1a1161010a578063bc063e1a14610351578063bda06f07146103c2578063c2b40ae4146103d5578063cb3dce9d146103e8578063cd87a3b4146103f057610253565b806390eeb02b14610384578063937d31861461038c578063b18855cf1461039f578063b2bc6e0f146103a7578063ba70f757146103ba57610253565b80634cf0f715116101d45780637fe24ffe116101985780637fe24ffe14610351578063832f405a146103595780638414cf0c1461036c5780638da5cb5b146103745780638f1c56bd1461037c57610253565b80634cf0f715146103065780634ecf518b14610319578063522d0d701461032e5780636d9833e31461033657806378abb49b1461034957610253565b80632fc0355f1161021b5780632fc0355f146102c65780633367fb1c146102ce57806338bf282e146102e3578063414a37ba146102f65780634783c35b146102fe57610253565b80630ba54df61461025857806317cc915c146102765780632570b7b414610296578063270af851146102b65780632d08050a146102be575b600080fd5b610260610492565b60405161026d9190612eda565b60405180910390f35b610289610284366004612b54565b6104b6565b60405161026d9190612f5b565b6102a96102a4366004612c51565b6104cb565b60405161026d9190612f66565b61028961055e565b6102a9610701565b61026061070d565b6102e16102dc366004612c96565b610731565b005b6102a96102f1366004612b6c565b610749565b6102a96108ca565b6102606108dc565b610289610314366004612d1a565b610900565b610321610d5b565b60405161026d919061352b565b610260610d7f565b610289610344366004612b54565b610da3565b6102a9610e13565b6102a9610e19565b6102e1610367366004612d4d565b610e21565b610260610e4e565b610260610e72565b6102a9610e96565b610321610e9c565b6102e161039a366004612d4d565b610ea8565b610260610f82565b6102e16103b5366004612c63565b610fa6565b6102a9610fdb565b6102e16103d0366004612b54565b610ff6565b6102a96103e3366004612b54565b611047565b6102a9611059565b61032161105f565b6102e1610406366004612b8d565b611064565b6102e1610419366004612bcd565b6112bf565b61028961042c366004612b54565b61166e565b6102a961043f366004612b54565b611683565b6102a9611cf3565b610260611d17565b6102a9610462366004612b54565b611d3b565b610260611d4d565b610321611d71565b6102e1610485366004612b54565b611d85565b6102a9611e38565b7f000000000000000000000000000000000000000000000000000000000000000081565b60086020526000908152604090205460ff1681565b6000600160f81b82106104f95760405162461bcd60e51b81526004016104f0906131b3565b60405180910390fd5b6001600160f81b0319831380156105135750600160f81b83125b61052f5760405162461bcd60e51b81526004016104f0906130c3565b818303600081121561055457806000036000805160206135ff83398151915203610556565b805b949350505050565b6000336001600160a01b037f00000000000000000000000000000000000000000000000000000000000000001614801561063b57507f00000000000000000000000000000000000000000000000000000000000000007f00000000000000000000000000000000000000000000000000000000000000006001600160a01b0316639e307dff6040518163ffffffff1660e01b815260040160206040518083038186803b15801561060d57600080fd5b505afa158015610621573d6000803e3d6000fd5b505050506040513d602081101561063757600080fd5b5051145b80156106fc57507f00000000000000000000000000000000000000000000000000000000000000006001600160a01b03167f00000000000000000000000000000000000000000000000000000000000000006001600160a01b031663d67bdd256040518163ffffffff1660e01b815260040160206040518083038186803b1580156106c557600080fd5b505afa1580156106d9573d6000803e3d6000fd5b505050506040513d60208110156106ef57600080fd5b50516001600160a01b0316145b905090565b6706f05b59d3b2000081565b7f000000000000000000000000000000000000000000000000000000000000000081565b61073a83610fa6565b6107448282610ea8565b505050565b60006000805160206135ff83398151915283106107ad576040805162461bcd60e51b815260206004820181905260248201527f5f6c6566742073686f756c6420626520696e7369646520746865206669656c64604482015290519081900360640190fd5b6000805160206135ff83398151915282106107f95760405162461bcd60e51b81526004018080602001828103825260218152602001806135b06021913960400191505060405180910390fd5b6108016127de565b838152602081018390526040805163014cf2b360e51b81527f00000000000000000000000000000000000000000000000000000000000000006001600160a01b03169163299e56609184916004909101908190839080838360005b8381101561087457818101518382015260200161085c565b5050505090500191505060206040518083038186803b15801561089657600080fd5b505afa1580156108aa573d6000803e3d6000fd5b505050506040513d60208110156108c057600080fd5b5051949350505050565b6000805160206135ff83398151915281565b7f000000000000000000000000000000000000000000000000000000000000000081565b600081604001515160021415610a64577f00000000000000000000000000000000000000000000000000000000000000006001600160a01b031663598da1d183600001516040518060e00160405280866020015160001c8152602001866080015181526020018660a0015160001c8152602001866040015160008151811061098457fe5b602002602001015160001c815260200186604001516001815181106109a557fe5b602002602001015160001c815260200186606001516000600281106109c657fe5b602002015160001c815260200186606001516001600281106109e457fe5b602002015190526040516001600160e01b031960e085901b168152610a0d929190600401612ff6565b60206040518083038186803b158015610a2557600080fd5b505afa158015610a39573d6000803e3d6000fd5b505050506040513d601f19601f82011682018060405250810190610a5d9190612b38565b9050610d56565b81604001515160101415610d3e577f00000000000000000000000000000000000000000000000000000000000000006001600160a01b03166386fbc0ee8360000151604051806102a00160405280866020015160001c8152602001866080015181526020018660a0015160001c81526020018660400151600081518110610ae757fe5b602002602001015160001c81526020018660400151600181518110610b0857fe5b602002602001015160001c81526020018660400151600281518110610b2957fe5b602002602001015160001c81526020018660400151600381518110610b4a57fe5b602002602001015160001c81526020018660400151600481518110610b6b57fe5b602002602001015160001c81526020018660400151600581518110610b8c57fe5b602002602001015160001c81526020018660400151600681518110610bad57fe5b602002602001015160001c81526020018660400151600781518110610bce57fe5b602002602001015160001c81526020018660400151600881518110610bef57fe5b602002602001015160001c81526020018660400151600981518110610c1057fe5b602002602001015160001c81526020018660400151600a81518110610c3157fe5b602002602001015160001c81526020018660400151600b81518110610c5257fe5b602002602001015160001c81526020018660400151600c81518110610c7357fe5b602002602001015160001c81526020018660400151600d81518110610c9457fe5b602002602001015160001c81526020018660400151600e81518110610cb557fe5b602002602001015160001c81526020018660400151600f81518110610cd657fe5b602002602001015160001c81526020018660600151600060028110610cf757fe5b602002015160001c81526020018660600151600160028110610d1557fe5b602002015190526040516001600160e01b031960e085901b168152610a0d929190600401612fae565b60405162461bcd60e51b81526004016104f0906133e4565b919050565b7f000000000000000000000000000000000000000000000000000000000000000081565b7f000000000000000000000000000000000000000000000000000000000000000081565b600081610db257506000610d56565b60035463ffffffff16805b63ffffffff8116600090815260026020526040902054841415610de557600192505050610d56565b63ffffffff8116610df4575060645b6000190163ffffffff8082169083161415610dbd575060009392505050565b60075481565b600160f81b81565b333014610e405760405162461bcd60e51b81526004016104f0906131d8565b610e4a8282611e5c565b5050565b7f000000000000000000000000000000000000000000000000000000000000000081565b7f000000000000000000000000000000000000000000000000000000000000000081565b60055481565b60035463ffffffff1681565b600081602001511315610e405760208101516040516323b872dd60e01b81526001600160a01b037f000000000000000000000000000000000000000000000000000000000000000016916323b872dd91610f09913391309190600401612eee565b602060405180830381600087803b158015610f2357600080fd5b505af1158015610f37573d6000803e3d6000fd5b505050506040513d601f19601f82011682018060405250810190610f5b9190612b38565b5060075481602001511115610e405760405162461bcd60e51b81526004016104f09061341b565b7f000000000000000000000000000000000000000000000000000000000000000081565b80516001600160a01b03163314610fcf5760405162461bcd60e51b81526004016104f090613033565b610fd881612506565b50565b60035463ffffffff1660009081526002602052604090205490565b336001600160a01b037f0000000000000000000000000000000000000000000000000000000000000000161461103e5760405162461bcd60e51b81526004016104f09061318a565b610fd881612552565b60026020526000908152604090205481565b60065481565b606481565b336001600160a01b037f000000000000000000000000000000000000000000000000000000000000000016146110ac5760405162461bcd60e51b81526004016104f09061318a565b6001600160a01b0382166110d25760405162461bcd60e51b81526004016104f09061336b565b7f00000000000000000000000000000000000000000000000000000000000000006001600160a01b0316836001600160a01b031614156111245760405162461bcd60e51b81526004016104f09061321e565b6001600160a01b0383166111845747600082156111415782611143565b815b6040519091506001600160a01b0385169082156108fc029083906000818181858888f1935050505015801561117c573d6000803e3d6000fd5b505050610744565b6040516370a0823160e01b81526000906001600160a01b038516906370a08231906111b3903090600401612eda565b60206040518083038186803b1580156111cb57600080fd5b505afa1580156111df573d6000803e3d6000fd5b505050506040513d601f19601f820116820180604052508101906112039190612dae565b9050600082156112135782611215565b815b9050600081116112375760405162461bcd60e51b81526004016104f0906133ad565b60405163a9059cbb60e01b81526001600160a01b0386169063a9059cbb906112659087908590600401612f12565b602060405180830381600087803b15801561127f57600080fd5b505af1158015611293573d6000803e3d6000fd5b505050506040513d601f19601f820116820180604052508101906112b79190612b38565b505050505050565b6000806112ce83850185612d4d565b915091507f00000000000000000000000000000000000000000000000000000000000000006001600160a01b0316866001600160a01b0316146113235760405162461bcd60e51b81526004016104f0906132c3565b336001600160a01b037f0000000000000000000000000000000000000000000000000000000000000000161461136b5760405162461bcd60e51b81526004016104f09061306a565b806020015185101561138f5760405162461bcd60e51b81526004016104f090613255565b6005548160200151017f00000000000000000000000000000000000000000000000000000000000000006001600160a01b03166370a08231306040518263ffffffff1660e01b81526004016113e49190612eda565b60206040518083038186803b1580156113fc57600080fd5b505afa158015611410573d6000803e3d6000fd5b505050506040513d601f19601f820116820180604052508101906114349190612dae565b10156114525760405162461bcd60e51b81526004016104f0906132fa565b600754816020015111156114785760405162461bcd60e51b81526004016104f09061341b565b60006005547f00000000000000000000000000000000000000000000000000000000000000006001600160a01b03166370a08231306040518263ffffffff1660e01b81526004016114c99190612eda565b60206040518083038186803b1580156114e157600080fd5b505afa1580156114f5573d6000803e3d6000fd5b505050506040513d601f19601f820116820180604052508101906115199190612dae565b604051634197a02d60e11b81529190039150309063832f405a906115439086908690600401613478565b600060405180830381600087803b15801561155d57600080fd5b505af192505050801561156e575060015b611665573d80801561159c576040519150601f19603f3d011682016040523d82523d6000602084013e6115a1565b606091505b5060405163a9059cbb60e01b81526001600160a01b037f0000000000000000000000000000000000000000000000000000000000000000169063a9059cbb90611610907f0000000000000000000000000000000000000000000000000000000000000000908690600401612f12565b602060405180830381600087803b15801561162a57600080fd5b505af115801561163e573d6000803e3d6000fd5b505050506040513d601f19601f820116820180604052508101906116629190612b38565b50505b50505050505050565b60009081526008602052604090205460ff1690565b6000816116b157507f2fe54c60d3acabf3343a35b6eba15db4821b340f76e741e2249685ed4899af6c610d56565b81600114156116e157507f1a332ca2cd2436bdc6796e6e4244ebf6f7e359868b7252e55342f766e4088082610d56565b816002141561171157507f2fb19ac27499bdf9d7d3b387eff42b6d12bffbc6206e81d0ef0b0d6b24520ebd610d56565b816003141561174157507f18d0d6e282d4eacbf18efc619a986db763b75095ed122fac7d4a49418daa42e1610d56565b816004141561177157507f054dec40f76a0f5aaeff1a85a4a3721b92b4ad244362d30b0ef8ed7033de11d3610d56565b81600514156117a157507f1d24c91f8d40f1c2591edec19d392905cf5eb01eada48d71836177ef11aea5b2610d56565b81600614156117d157507f0fb63621cfc047eba2159faecfa55b120d7c81c0722633ef94e20e27675e378f610d56565b816007141561180157507f277b08f214fe8c5504a79614cdec5abd7b6adc9133fe926398684c82fd798b44610d56565b816008141561183157507f2633613437c1fd97f7c798e2ea30d52cfddee56d74f856a541320ae86ddaf2de610d56565b816009141561186057507e768963fa4b993fbfece3619bfaa3ca4afd7e3864f11b09a0849dbf4ad25807610d56565b81600a141561189057507f0e63ff9df484c1a21478bd27111763ef203177ec0a7ef3a3cd43ec909f587bb0610d56565b81600b14156118c057507f0e6a4bfb0dd0ac8bf5517eaac48a95ba783dabe9f64494f9c892d3e8431eaab3610d56565b81600c14156118f057507f0164a46b3ffff8baca00de7a130a63d105f1578076838502b99488505d5b3d35610d56565b81600d141561192057507f145a6f1521c02b250cc76eb35cd67c9b0b22473577de3778e4c51903836c8957610d56565b81600e141561195057507f29849fc5b55303a660bad33d986fd156d48516ec58a0f0a561a03b704a802254610d56565b81600f141561198057507f26639dd486b374e98ac6da34e8651b3fca58c51f1c2f857dd82045f27fc8dbe6610d56565b81601014156119b057507f2aa39214b887ee877e60afdb191390344c68177c30a0b8646649774174de5e33610d56565b81601114156119e057507f09b397d253e41a521d042ffe01f8c33ae37d4c7da21af68693aafb63d599d708610d56565b8160121415611a1057507f02fbfd397ad901cea38553239aefec016fcb6a19899038503f04814cbb79a511610d56565b8160131415611a4057507f266640a877ec97a91f6c95637f843eeac8718f53f311bac9cba7d958df646f9d610d56565b8160141415611a7057507f29f9a0a07a22ab214d00aaa0190f54509e853f3119009baecb0035347606b0a9610d56565b8160151415611aa057507f0a1fda67bffa0ab3a755f23fdcf922720820b6a96616a5ca34643cd0b935e3d6610d56565b8160161415611ad057507f19507199eb76b5ec5abe538a01471d03efb6c6984739c77ec61ada2ba2afb389610d56565b8160171415611b0057507f26bd93d26b751484942282e27acfb6d193537327a831df6927e19cdfc73c3e64610d56565b8160181415611b3057507f2eb88a9c6b00a4bc6ea253268090fe1d255f6fe02d2eb745517723aae44d7386610d56565b8160191415611b6057507f13e50d0bda78be97792df40273cbb16f0dc65c0697d81a82d07d0f6eee80a164610d56565b81601a1415611b9057507f2ea95776929000133246ff8d9fdcba179d0b262b9e910558309bac1c1ec03d7a610d56565b81601b1415611bc057507f1a640d6ef66e356c795396c0957b06a99891afe0c493f4d0bdfc0450764bae60610d56565b81601c1415611bf057507f2b17979f2c2048dd9e4ee5f482cced21435ea8cc54c32f80562e39a5016b0496610d56565b81601d1415611c2057507f29ba6a30de50542e261abfc7ee0c68911002d3acd4dd4c02ad59aa96805b20bb610d56565b81601e1415611c5057507f103fcf1c8a98ebe50285f6e669077a579308311fd44bb6895d5da7ba7fd3564e610d56565b81601f1415611c8057507f166bdd01780976e655f5278260c638dcf10fe7c136f37c9152cbcaabef901f4d610d56565b8160201415611cb057507f2712c601a9b8b2abd396a619327095d3f1ea86a6c07d6df416a3973a1a4b3ce5610d56565b6040805162461bcd60e51b8152602060048201526013602482015272496e646578206f7574206f6620626f756e647360681b604482015290519081900360640190fd5b7f2fe54c60d3acabf3343a35b6eba15db4821b340f76e741e2249685ed4899af6c81565b7f000000000000000000000000000000000000000000000000000000000000000081565b60016020526000908152604090205481565b7f000000000000000000000000000000000000000000000000000000000000000081565b600354640100000000900463ffffffff1681565b600054610100900460ff1680611d9e5750611d9e612557565b80611dac575060005460ff16155b611de75760405162461bcd60e51b815260040180806020018281038252602e8152602001806135d1602e913960400191505060405180910390fd5b600054610100900460ff16158015611e12576000805460ff1961ff0019909116610100171660011790555b611e1b82612552565b611e23612568565b8015610e4a576000805461ff00191690555050565b7f000000000000000000000000000000000000000000000000000000000000000081565b60026004541415611eb4576040805162461bcd60e51b815260206004820152601f60248201527f5265656e7472616e637947756172643a207265656e7472616e742063616c6c00604482015290519081900360640190fd5b60026004556020820151611ec790610da3565b611ee35760405162461bcd60e51b81526004016104f0906130ef565b60005b826040015151811015611f3857611f1383604001518281518110611f0657fe5b602002602001015161166e565b15611f305760405162461bcd60e51b81526004016104f09061333b565b600101611ee6565b506000805160206135ff83398151915281604051602001611f599190613465565b6040516020818303038152906040528051906020012060001c81611f7957fe5b068260a0015160001c14611f9f5760405162461bcd60e51b81526004016104f09061311c565b611fb1816020015182606001516104cb565b826080015114611fd35760405162461bcd60e51b81526004016104f090613094565b611fdc82610900565b611ff85760405162461bcd60e51b81526004016104f09061328c565b60005b82604001515181101561204f576001600860008560400151848151811061201e57fe5b6020908102919091018101518252810191909152604001600020805460ff1916911515919091179055600101611ffb565b506000816020015112156122715780516001600160a01b03166120845760405162461bcd60e51b81526004016104f090613153565b8060c00151156121c5577f00000000000000000000000000000000000000000000000000000000000000006001600160a01b0316634000aea07f000000000000000000000000000000000000000000000000000000000000000083602001516000037f000000000000000000000000000000000000000000000000000000000000000085600001518660e00151604051602001612122929190612f12565b60408051601f19818403018152908290526121409291602001612ea2565b6040516020818303038152906040526040518463ffffffff1660e01b815260040161216d93929190612f2b565b602060405180830381600087803b15801561218757600080fd5b505af115801561219b573d6000803e3d6000fd5b505050506040513d601f19601f820116820180604052508101906121bf9190612b38565b50612271565b8051602082015160405163a9059cbb60e01b81526001600160a01b037f0000000000000000000000000000000000000000000000000000000000000000169263a9059cbb9261221d9260009190910390600401612f12565b602060405180830381600087803b15801561223757600080fd5b505af115801561224b573d6000803e3d6000fd5b505050506040513d601f19601f8201168201806040525081019061226f9190612b38565b505b606081015115612325577f00000000000000000000000000000000000000000000000000000000000000006001600160a01b031663a9059cbb826040015183606001516040518363ffffffff1660e01b81526004016122d1929190612f12565b602060405180830381600087803b1580156122eb57600080fd5b505af11580156122ff573d6000803e3d6000fd5b505050506040513d601f19601f820116820180604052508101906123239190612b38565b505b6040516370a0823160e01b81526001600160a01b037f000000000000000000000000000000000000000000000000000000000000000016906370a0823190612371903090600401612eda565b60206040518083038186803b15801561238957600080fd5b505afa15801561239d573d6000803e3d6000fd5b505050506040513d601f19601f820116820180604052508101906123c19190612dae565b600555606082015180516020909101516123db919061262d565b5060608201515160035460808301516040517ff3843eddcfcac65d12d9f26261dab50671fdbf5dc44441816c8bbdace2411afd9361242e93909264010000000090910463ffffffff166001190191612f6f565b60405180910390a160608201517ff3843eddcfcac65d12d9f26261dab50671fdbf5dc44441816c8bbdace2411afd90600160200201516001600360049054906101000a900463ffffffff16038360a0015160405161248e93929190612f6f565b60405180910390a160005b8260400151518110156124fc577f5e58f77bbf94b46d8d896e29753e4458c6e59b48581e20ed58c9558e96f297ce836040015182815181106124d757fe5b60200260200101516040516124ec9190612f66565b60405180910390a1600101612499565b5050600160045550565b80600001516001600160a01b03167f2c1ca5c14df2aba59d26842c5ff53f6817052ef34f6f7537f8b4c9e3805a5e5082602001516040516125479190612f94565b60405180910390a250565b600755565b6000612562306127d8565b15905090565b60005b7f000000000000000000000000000000000000000000000000000000000000000063ffffffff168163ffffffff1610156125d0576125ae8163ffffffff16611683565b63ffffffff82166000908152600160208190526040909120919091550161256b565b506126007f000000000000000000000000000000000000000000000000000000000000000063ffffffff16611683565b6000805260026020527fac33ff75c19e70fe83507db0d683fd3465c996598dc972688b7ace676c89077b55565b60035460009063ffffffff6401000000009091048116907f0000000000000000000000000000000000000000000000000000000000000000811660020a168114156126a95760405162461bcd60e51b815260040180806020018281038252603081526020018061361f6030913960400191505060405180910390fd5b600263ffffffff82160460006126bf8686610749565b905060008060015b7f000000000000000000000000000000000000000000000000000000000000000063ffffffff168163ffffffff1610156127705760018516612734578392506127158163ffffffff16611683565b63ffffffff821660009081526001602052604090208590559150612750565b63ffffffff811660009081526001602052604090205492508391505b61275a8383610749565b9350600263ffffffff86160494506001016126c7565b50506003805463ffffffff1981166064600163ffffffff9384160183160682169081178355600090815260026020819052604090912094909455815467ffffffff00000000191664010000000094870190911693909302929092179091555090949350505050565b3b151590565b60405180604001604052806002906020820280368337509192915050565b8035610d568161358c565b600082601f830112612817578081fd5b6040516040810181811067ffffffffffffffff8211171561283457fe5b806040525080838560408601111561284a578384fd5b835b600281101561286b57813583526020928301929091019060010161284c565b509195945050505050565b600082601f830112612886578081fd5b8135602067ffffffffffffffff82111561289c57fe5b8082026128aa82820161353c565b8381528281019086840183880185018910156128c4578687fd5b8693505b858410156128e65780358352600193909301929184019184016128c8565b50979650505050505050565b8035610d56816135a1565b600082601f83011261290d578081fd5b813567ffffffffffffffff81111561292157fe5b612934601f8201601f191660200161353c565b818152846020838601011115612948578283fd5b816020850160208301379081016020019190915292915050565b600060408284031215612973578081fd5b6040516040810167ffffffffffffffff828210818311171561299157fe5b81604052829350843591506129a58261358c565b908252602084013590808211156129bb57600080fd5b506129c8858286016128fd565b6020830152505092915050565b60006101008083850312156129e8578182fd5b6129f18161353c565b9150506129fd826127fc565b815260208201356020820152612a15604083016127fc565b604082015260608201356060820152608082013567ffffffffffffffff80821115612a3f57600080fd5b612a4b858386016128fd565b608084015260a0840135915080821115612a6457600080fd5b50612a71848285016128fd565b60a083015250612a8360c083016128f2565b60c082015260e082013560e082015292915050565b600060e08284031215612aa9578081fd5b612ab360c061353c565b9050813567ffffffffffffffff80821115612acd57600080fd5b612ad9858386016128fd565b8352602084013560208401526040840135915080821115612af957600080fd5b50612b0684828501612876565b604083015250612b198360608401612807565b606082015260a0820135608082015260c082013560a082015292915050565b600060208284031215612b49578081fd5b8151610554816135a1565b600060208284031215612b65578081fd5b5035919050565b60008060408385031215612b7e578081fd5b50508035926020909101359150565b600080600060608486031215612ba1578081fd5b8335612bac8161358c565b92506020840135612bbc8161358c565b929592945050506040919091013590565b60008060008060608587031215612be2578182fd5b8435612bed8161358c565b935060208501359250604085013567ffffffffffffffff80821115612c10578384fd5b818701915087601f830112612c23578384fd5b813581811115612c31578485fd5b886020828501011115612c42578485fd5b95989497505060200194505050565b60008060408385031215612b7e578182fd5b600060208284031215612c74578081fd5b813567ffffffffffffffff811115612c8a578182fd5b61055684828501612962565b600080600060608486031215612caa578081fd5b833567ffffffffffffffff80821115612cc1578283fd5b612ccd87838801612962565b94506020860135915080821115612ce2578283fd5b612cee87838801612a98565b93506040860135915080821115612d03578283fd5b50612d10868287016129d5565b9150509250925092565b600060208284031215612d2b578081fd5b813567ffffffffffffffff811115612d41578182fd5b61055684828501612a98565b60008060408385031215612d5f578182fd5b823567ffffffffffffffff80821115612d76578384fd5b612d8286838701612a98565b93506020850135915080821115612d97578283fd5b50612da4858286016129d5565b9150509250929050565b600060208284031215612dbf578081fd5b5051919050565b8060005b6002811015612de9578151845260209384019390910190600101612dca565b50505050565b60008151808452612e07816020860160208601613560565b601f01601f19169290920160200192915050565b600061010060018060a01b038084511685526020840151602086015280604085015116604086015250606083015160608501526080830151816080860152612e6582860182612def565b91505060a083015184820360a0860152612e7f8282612def565b91505060c0830151151560c085015260e083015160e08501528091505092915050565b60006bffffffffffffffffffffffff198460601b1682528251612ecc816014850160208701613560565b919091016014019392505050565b6001600160a01b0391909116815260200190565b6001600160a01b039384168152919092166020820152604081019190915260600190565b6001600160a01b03929092168252602082015260400190565b600060018060a01b038516825283602083015260606040830152612f526060830184612def565b95945050505050565b901515815260200190565b90815260200190565b600084825263ffffffff8416602083015260606040830152612f526060830184612def565b600060208252612fa76020830184612def565b9392505050565b60006102c0808352612fc281840186612def565b91505060208083018460005b6015811015612feb57815183529183019190830190600101612fce565b505050509392505050565b600061010080835261300a81840186612def565b91505060208083018460005b6007811015612feb57815183529183019190830190600101613016565b6020808252601c908201527f6f6e6c79206f776e65722063616e206265207265676973746572656400000000604082015260600190565b60208082526010908201526f6f6e6c79206f6d6e692062726964676560801b604082015260600190565b602080825260159082015274125b9d985b1a59081c1d589b1a58c8185b5bdd5b9d605a1b604082015260600190565b602080825260129082015271125b9d985b1a5908195e1d08185b5bdd5b9d60721b604082015260600190565b602080825260139082015272125b9d985b1a59081b595c9adb19481c9bdbdd606a1b604082015260600190565b6020808252601c908201527f496e636f72726563742065787465726e616c2064617461206861736800000000604082015260600190565b6020808252601e908201527f43616e277420776974686472617720746f207a65726f20616464726573730000604082015260600190565b6020808252600f908201526e6f6e6c7920676f7665726e616e636560881b604082015260600190565b6020808252600b908201526a496e76616c69642066656560a81b604082015260600190565b60208082526026908201527f63616e2062652063616c6c6564206f6e6c792066726f6d206f6e546f6b656e426040820152651c9a5919d95960d21b606082015260800190565b60208082526019908201527f63616e206e6f742072657363756520706f6f6c20617373657400000000000000604082015260600190565b6020808252601f908201527f616d6f756e742066726f6d2062726964676520697320696e636f727265637400604082015260600190565b60208082526019908201527f496e76616c6964207472616e73616374696f6e2070726f6f6600000000000000604082015260600190565b6020808252601f908201527f70726f766964656420746f6b656e206973206e6f7420737570706f7274656400604082015260600190565b60208082526021908201527f62726964676520646964206e6f742073656e6420656e6f75676820746f6b656e6040820152607360f81b606082015260800190565b602080825260169082015275125b9c1d5d081a5cc8185b1c9958591e481cdc195b9d60521b604082015260600190565b60208082526022908201527f544f524e3a2063616e206e6f742073656e6420746f207a65726f206164647265604082015261737360f01b606082015260800190565b6020808252601e908201527f544f524e3a20747279696e6720746f2073656e6420302062616c616e63650000604082015260600190565b60208082526017908201527f756e737570706f7274656420696e70757420636f756e74000000000000000000604082015260600190565b6020808252602a908201527f616d6f756e74206973206c6172676572207468616e206d6178696d756d4465706040820152691bdcda5d105b5bdd5b9d60b21b606082015260800190565b600060208252612fa76020830184612e1b565b600060408252835160e06040840152613495610120840182612def565b60208681015160608601526040870151858303603f190160808701528051808452908201935090918491908301905b808310156134e457845182529383019360019290920191908301906134c4565b50606088015193506134f960a0870185612dc6565b608088015160e087015260a08801516101008701528581038387015261351f8188612e1b565b98975050505050505050565b63ffffffff91909116815260200190565b60405181810167ffffffffffffffff8111828210171561355857fe5b604052919050565b60005b8381101561357b578181015183820152602001613563565b83811115612de95750506000910152565b6001600160a01b0381168114610fd857600080fd5b8015158114610fd857600080fdfe5f72696768742073686f756c6420626520696e7369646520746865206669656c64496e697469616c697a61626c653a20636f6e747261637420697320616c726561647920696e697469616c697a656430644e72e131a029b85045b68181585d2833e84879b9709143e1f593f00000014d65726b6c6520747265652069732066756c6c2e204e6f206d6f7265206c65617665732063616e206265206164646564a2646970667358221220ed77c61d604b05fd9350aa58332b5a60470694c12adc38a59fcccc3614c0259564736f6c634300070600335f6c6576656c732073686f756c642062652067726561746572207468616e207a65726f",
  "linkReferences": {},
  "deployedLinkReferences": {}
}